{
  "_format": "hh-sol-artifact-1",
  "contractName": "KlayLinkMinter",
  "sourceName": "contracts/KlayLinkMinter.sol",
  "abi": [
    {
      "inputs": [
        {
          "internalType": "contract IKlayLink",
          "name": "_klayLink",
          "type": "address"
        }
      ],
      "stateMutability": "nonpayable",
      "type": "constructor"
    },
    {
      "anonymous": false,
      "inputs": [
        {
          "indexed": true,
          "internalType": "address",
          "name": "previousOwner",
          "type": "address"
        },
        {
          "indexed": true,
          "internalType": "address",
          "name": "newOwner",
          "type": "address"
        }
      ],
      "name": "OwnershipTransferred",
      "type": "event"
    },
    {
      "anonymous": false,
      "inputs": [
        {
          "indexed": false,
          "internalType": "address",
          "name": "db",
          "type": "address"
        }
      ],
      "name": "SetDiscountDB",
      "type": "event"
    },
    {
      "anonymous": false,
      "inputs": [
        {
          "indexed": false,
          "internalType": "address",
          "name": "feeTo",
          "type": "address"
        }
      ],
      "name": "SetFeeTo",
      "type": "event"
    },
    {
      "anonymous": false,
      "inputs": [
        {
          "indexed": false,
          "internalType": "uint96",
          "name": "limit",
          "type": "uint96"
        }
      ],
      "name": "SetLimit",
      "type": "event"
    },
    {
      "anonymous": false,
      "inputs": [
        {
          "indexed": false,
          "internalType": "uint96",
          "name": "mintPrice",
          "type": "uint96"
        }
      ],
      "name": "SetMintPrice",
      "type": "event"
    },
    {
      "inputs": [],
      "name": "discountDB",
      "outputs": [
        {
          "internalType": "address",
          "name": "",
          "type": "address"
        }
      ],
      "stateMutability": "view",
      "type": "function"
    },
    {
      "inputs": [],
      "name": "feeTo",
      "outputs": [
        {
          "internalType": "address",
          "name": "",
          "type": "address"
        }
      ],
      "stateMutability": "view",
      "type": "function"
    },
    {
      "inputs": [],
      "name": "klayLink",
      "outputs": [
        {
          "internalType": "contract IKlayLink",
          "name": "",
          "type": "address"
        }
      ],
      "stateMutability": "view",
      "type": "function"
    },
    {
      "inputs": [],
      "name": "limit",
      "outputs": [
        {
          "internalType": "uint96",
          "name": "",
          "type": "uint96"
        }
      ],
      "stateMutability": "view",
      "type": "function"
    },
    {
      "inputs": [
        {
          "internalType": "bool",
          "name": "discount",
          "type": "bool"
        },
        {
          "internalType": "bytes",
          "name": "data",
          "type": "bytes"
        }
      ],
      "name": "mint",
      "outputs": [
        {
          "internalType": "uint256",
          "name": "id",
          "type": "uint256"
        }
      ],
      "stateMutability": "payable",
      "type": "function"
    },
    {
      "inputs": [],
      "name": "mintPrice",
      "outputs": [
        {
          "internalType": "uint96",
          "name": "",
          "type": "uint96"
        }
      ],
      "stateMutability": "view",
      "type": "function"
    },
    {
      "inputs": [],
      "name": "owner",
      "outputs": [
        {
          "internalType": "address",
          "name": "",
          "type": "address"
        }
      ],
      "stateMutability": "view",
      "type": "function"
    },
    {
      "inputs": [],
      "name": "renounceOwnership",
      "outputs": [],
      "stateMutability": "nonpayable",
      "type": "function"
    },
    {
      "inputs": [
        {
          "internalType": "address",
          "name": "db",
          "type": "address"
        }
      ],
      "name": "setDiscountDB",
      "outputs": [],
      "stateMutability": "nonpayable",
      "type": "function"
    },
    {
      "inputs": [
        {
          "internalType": "address",
          "name": "_feeTo",
          "type": "address"
        }
      ],
      "name": "setFeeTo",
      "outputs": [],
      "stateMutability": "nonpayable",
      "type": "function"
    },
    {
      "inputs": [
        {
          "internalType": "uint96",
          "name": "_limit",
          "type": "uint96"
        }
      ],
      "name": "setLimit",
      "outputs": [],
      "stateMutability": "nonpayable",
      "type": "function"
    },
    {
      "inputs": [
        {
          "internalType": "uint96",
          "name": "_price",
          "type": "uint96"
        }
      ],
      "name": "setMintPrice",
      "outputs": [],
      "stateMutability": "nonpayable",
      "type": "function"
    },
    {
      "inputs": [
        {
          "internalType": "address",
          "name": "newOwner",
          "type": "address"
        }
      ],
      "name": "transferOwnership",
      "outputs": [],
      "stateMutability": "nonpayable",
      "type": "function"
    }
  ],
  "bytecode": "0x60a060405234801561001057600080fd5b50604051610e0a380380610e0a83398101604081905261002f9161016a565b6100383361011a565b6001600160a01b03818116608052336001600160a01b03198117600155600080549092166601043561a8829360b41b179091556040519081527ff6b59ffc88fbb27f33470b919e00b41139ee340eb349521f0cbbc1504ce29c3e9060200160405180910390a16040516001600160601b0381527f5c1fdc7d05c8e6c8cc593ed8f5a692c5c81a35e471d0d7cca84cce34df3836a29060200160405180910390a1604051681043561a882930000081527f48c26a202add915a84d2b3a660036458b84dba5a3d56ddff05a4f79c1b89e1fd9060200160405180910390a15061019a565b600080546001600160a01b038381166001600160a01b0319831681178455604051919092169283917f8be0079c531659141344cd1fd0a4f28419497f9722a3daafe3b4186f6b6457e09190a35050565b60006020828403121561017c57600080fd5b81516001600160a01b038116811461019357600080fd5b9392505050565b608051610c476101c3600039600081816101380152818161041001526106280152610c476000f3fe6080604052600436106100c25760003560e01c8063715018a61161007f578063b93b756b11610059578063b93b756b14610233578063df1ad13114610254578063f2fde38b14610274578063f46901ed1461029457600080fd5b8063715018a6146101d95780638da5cb5b146101ee578063a4d66daf1461020c57600080fd5b8063017e7e58146100c757806323d78d1114610104578063428d639e146101265780634cdb76bf1461015a578063604462b31461017a5780636817c76c1461019a575b600080fd5b3480156100d357600080fd5b506001546100e7906001600160a01b031681565b6040516001600160a01b0390911681526020015b60405180910390f35b34801561011057600080fd5b5061012461011f366004610a14565b6102b4565b005b34801561013257600080fd5b506100e77f000000000000000000000000000000000000000000000000000000000000000081565b34801561016657600080fd5b50610124610175366004610a44565b610347565b34801561018657600080fd5b506002546100e7906001600160a01b031681565b3480156101a657600080fd5b506000546101c190600160a01b90046001600160601b031681565b6040516001600160601b0390911681526020016100fb565b3480156101e557600080fd5b506101246103d9565b3480156101fa57600080fd5b506000546001600160a01b03166100e7565b34801561021857600080fd5b506001546101c190600160a01b90046001600160601b031681565b610246610241366004610a6d565b6103ed565b6040519081526020016100fb565b34801561026057600080fd5b5061012461026f366004610a44565b6106be565b34801561028057600080fd5b5061012461028f366004610a14565b610750565b3480156102a057600080fd5b506101246102af366004610a14565b6107c9565b6102bc61084c565b6002546001600160a01b038083169116036102f25760405162461bcd60e51b81526004016102e990610af7565b60405180910390fd5b600280546001600160a01b0319166001600160a01b0383169081179091556040519081527f8fdf99bcdf13cc0e9cebffd8b0bf64ef65e953499745f6cb5c1fbf2210a3001b906020015b60405180910390a150565b61034f61084c565b6000546001600160601b03808316600160a01b90920416036103835760405162461bcd60e51b81526004016102e990610af7565b600080546001600160a01b0316600160a01b6001600160601b038416908102919091179091556040519081527f48c26a202add915a84d2b3a660036458b84dba5a3d56ddff05a4f79c1b89e1fd9060200161033c565b6103e161084c565b6103eb60006108a6565b565b6000600160149054906101000a90046001600160601b03166001600160601b03167f00000000000000000000000000000000000000000000000000000000000000006001600160a01b03166318160ddd6040518163ffffffff1660e01b8152600401602060405180830381865afa15801561046c573d6000803e3d6000fd5b505050506040513d601f19601f820116820180604052508101906104909190610b1a565b106104ce5760405162461bcd60e51b815260206004820152600e60248201526d131253525517d15610d15151115160921b60448201526064016102e9565b600054600160a01b90046001600160601b031684156105d0576002546001600160a01b031661052f5760405162461bcd60e51b815260206004820152600d60248201526c2727afa224a9a1a7aaa72a222160991b60448201526064016102e9565b6002546040516355abd85f60e01b81526000916001600160a01b0316906355abd85f9061056490339089908990600401610b33565b602060405180830381865afa158015610581573d6000803e3d6000fd5b505050506040513d601f19601f820116820180604052508101906105a59190610b73565b90506127106105b48282610bad565b6105c29061ffff1684610bd0565b6105cc9190610bef565b9150505b8034146106135760405162461bcd60e51b8152602060048201526011602482015270494e56414c49445f4d494e54505249434560781b60448201526064016102e9565b6040516335313c2160e11b81523360048201527f00000000000000000000000000000000000000000000000000000000000000006001600160a01b031690636a627842906024016020604051808303816000875af1158015610679573d6000803e3d6000fd5b505050506040513d601f19601f8201168201806040525081019061069d9190610b1a565b6001549092506106b6906001600160a01b0316346108f6565b509392505050565b6106c661084c565b6001546001600160601b03808316600160a01b90920416036106fa5760405162461bcd60e51b81526004016102e990610af7565b600180546001600160a01b0316600160a01b6001600160601b038416908102919091179091556040519081527f5c1fdc7d05c8e6c8cc593ed8f5a692c5c81a35e471d0d7cca84cce34df3836a29060200161033c565b61075861084c565b6001600160a01b0381166107bd5760405162461bcd60e51b815260206004820152602660248201527f4f776e61626c653a206e6577206f776e657220697320746865207a65726f206160448201526564647265737360d01b60648201526084016102e9565b6107c6816108a6565b50565b6107d161084c565b6001546001600160a01b038083169116036107fe5760405162461bcd60e51b81526004016102e990610af7565b600180546001600160a01b0319166001600160a01b0383169081179091556040519081527ff6b59ffc88fbb27f33470b919e00b41139ee340eb349521f0cbbc1504ce29c3e9060200161033c565b6000546001600160a01b031633146103eb5760405162461bcd60e51b815260206004820181905260248201527f4f776e61626c653a2063616c6c6572206973206e6f7420746865206f776e657260448201526064016102e9565b600080546001600160a01b038381166001600160a01b0319831681178455604051919092169283917f8be0079c531659141344cd1fd0a4f28419497f9722a3daafe3b4186f6b6457e09190a35050565b804710156109465760405162461bcd60e51b815260206004820152601d60248201527f416464726573733a20696e73756666696369656e742062616c616e636500000060448201526064016102e9565b6000826001600160a01b03168260405160006040518083038185875af1925050503d8060008114610993576040519150601f19603f3d011682016040523d82523d6000602084013e610998565b606091505b5050905080610a0f5760405162461bcd60e51b815260206004820152603a60248201527f416464726573733a20756e61626c6520746f2073656e642076616c75652c207260448201527f6563697069656e74206d6179206861766520726576657274656400000000000060648201526084016102e9565b505050565b600060208284031215610a2657600080fd5b81356001600160a01b0381168114610a3d57600080fd5b9392505050565b600060208284031215610a5657600080fd5b81356001600160601b0381168114610a3d57600080fd5b600080600060408486031215610a8257600080fd5b83358015158114610a9257600080fd5b9250602084013567ffffffffffffffff80821115610aaf57600080fd5b818601915086601f830112610ac357600080fd5b813581811115610ad257600080fd5b876020828501011115610ae457600080fd5b6020830194508093505050509250925092565b602080825260099082015268155390d2105391d15160ba1b604082015260600190565b600060208284031215610b2c57600080fd5b5051919050565b6001600160a01b03841681526040602082018190528101829052818360608301376000818301606090810191909152601f909201601f1916010192915050565b600060208284031215610b8557600080fd5b815161ffff81168114610a3d57600080fd5b634e487b7160e01b600052601160045260246000fd5b600061ffff83811690831681811015610bc857610bc8610b97565b039392505050565b6000816000190483118215151615610bea57610bea610b97565b500290565b600082610c0c57634e487b7160e01b600052601260045260246000fd5b50049056fea26469706673582212207246a10d2325286dbe27c4be0b0509b0337049402d13759953f093053abb960264736f6c634300080f0033",
  "linkReferences": {},
  "deployedLinkReferences": {}
}